{
  "contractName": "Detection",
  "abi": [
    {
      "anonymous": false,
      "inputs": [
        {
          "indexed": false,
          "internalType": "uint256",
          "name": "index",
          "type": "uint256"
        }
      ],
      "name": "Added",
      "type": "event"
    },
    {
      "constant": true,
      "inputs": [
        {
          "internalType": "string",
          "name": "_a",
          "type": "string"
        },
        {
          "internalType": "string",
          "name": "_b",
          "type": "string"
        }
      ],
      "name": "concat",
      "outputs": [
        {
          "internalType": "string",
          "name": "",
          "type": "string"
        }
      ],
      "payable": false,
      "stateMutability": "pure",
      "type": "function"
    },
    {
      "constant": false,
      "inputs": [
        {
          "internalType": "uint256",
          "name": "_rate",
          "type": "uint256"
        },
        {
          "internalType": "string",
          "name": "_name",
          "type": "string"
        },
        {
          "internalType": "string",
          "name": "_company",
          "type": "string"
        },
        {
          "internalType": "string",
          "name": "_date",
          "type": "string"
        },
        {
          "internalType": "string",
          "name": "_ingredients",
          "type": "string"
        },
        {
          "internalType": "string",
          "name": "_description",
          "type": "string"
        }
      ],
      "name": "AddMedicine",
      "outputs": [
        {
          "internalType": "bool",
          "name": "",
          "type": "bool"
        }
      ],
      "payable": false,
      "stateMutability": "nonpayable",
      "type": "function"
    },
    {
      "constant": true,
      "inputs": [
        {
          "internalType": "uint256",
          "name": "_id",
          "type": "uint256"
        }
      ],
      "name": "SearchMedicine",
      "outputs": [
        {
          "internalType": "string",
          "name": "",
          "type": "string"
        }
      ],
      "payable": false,
      "stateMutability": "view",
      "type": "function"
    },
    {
      "constant": false,
      "inputs": [
        {
          "internalType": "uint256",
          "name": "_productId",
          "type": "uint256"
        },
        {
          "internalType": "string",
          "name": "_date",
          "type": "string"
        },
        {
          "internalType": "string",
          "name": "_location",
          "type": "string"
        }
      ],
      "name": "addState",
      "outputs": [
        {
          "internalType": "string",
          "name": "",
          "type": "string"
        }
      ],
      "payable": false,
      "stateMutability": "nonpayable",
      "type": "function"
    }
  ],
  "bytecode": "0x60806040526000805534801561001457600080fd5b50611406806100246000396000f3fe608060405234801561001057600080fd5b506004361061004c5760003560e01c80630e625cf11461005157806379909c0a1461038a57806389c19ddb14610431578063a4f80e19146105fc575b600080fd5b610370600480360360c081101561006757600080fd5b81019080803590602001909291908035906020019064010000000081111561008e57600080fd5b8201836020820111156100a057600080fd5b803590602001918460018302840111640100000000831117156100c257600080fd5b91908080601f016020809104026020016040519081016040528093929190818152602001838380828437600081840152601f19601f8201169050808301925050505050505091929192908035906020019064010000000081111561012557600080fd5b82018360208201111561013757600080fd5b8035906020019184600183028401116401000000008311171561015957600080fd5b91908080601f016020809104026020016040519081016040528093929190818152602001838380828437600081840152601f19601f820116905080830192505050505050509192919290803590602001906401000000008111156101bc57600080fd5b8201836020820111156101ce57600080fd5b803590602001918460018302840111640100000000831117156101f057600080fd5b91908080601f016020809104026020016040519081016040528093929190818152602001838380828437600081840152601f19601f8201169050808301925050505050505091929192908035906020019064010000000081111561025357600080fd5b82018360208201111561026557600080fd5b8035906020019184600183028401116401000000008311171561028757600080fd5b91908080601f016020809104026020016040519081016040528093929190818152602001838380828437600081840152601f19601f820116905080830192505050505050509192919290803590602001906401000000008111156102ea57600080fd5b8201836020820111156102fc57600080fd5b8035906020019184600183028401116401000000008311171561031e57600080fd5b91908080601f016020809104026020016040519081016040528093929190818152602001838380828437600081840152601f19601f8201169050808301925050505050505091929192905050506107d1565b604051808215151515815260200191505060405180910390f35b6103b6600480360360208110156103a057600080fd5b810190808035906020019092919050505061099c565b6040518080602001828103825283818151815260200191508051906020019080838360005b838110156103f65780820151818401526020810190506103db565b50505050905090810190601f1680156104235780820380516001836020036101000a031916815260200191505b509250505060405180910390f35b6105816004803603604081101561044757600080fd5b810190808035906020019064010000000081111561046457600080fd5b82018360208201111561047657600080fd5b8035906020019184600183028401116401000000008311171561049857600080fd5b91908080601f016020809104026020016040519081016040528093929190818152602001838380828437600081840152601f19601f820116905080830192505050505050509192919290803590602001906401000000008111156104fb57600080fd5b82018360208201111561050d57600080fd5b8035906020019184600183028401116401000000008311171561052f57600080fd5b91908080601f016020809104026020016040519081016040528093929190818152602001838380828437600081840152601f19601f820116905080830192505050505050509192919290505050610f95565b6040518080602001828103825283818151815260200191508051906020019080838360005b838110156105c15780820151818401526020810190506105a6565b50505050905090810190601f1680156105ee5780820380516001836020036101000a031916815260200191505b509250505060405180910390f35b6107566004803603606081101561061257600080fd5b81019080803590602001909291908035906020019064010000000081111561063957600080fd5b82018360208201111561064b57600080fd5b8035906020019184600183028401116401000000008311171561066d57600080fd5b91908080601f016020809104026020016040519081016040528093929190818152602001838380828437600081840152601f19601f820116905080830192505050505050509192919290803590602001906401000000008111156106d057600080fd5b8201836020820111156106e257600080fd5b8035906020019184600183028401116401000000008311171561070457600080fd5b91908080601f016020809104026020016040519081016040528093929190818152602001838380828437600081840152601f19601f8201169050808301925050505050505091929192905050506110de565b6040518080602001828103825283818151815260200191508051906020019080838360005b8381101561079657808201518184015260208101905061077b565b50505050905090810190601f1680156107c35780820380516001836020036101000a031916815260200191505b509250505060405180910390f35b60006107db61129a565b60405180610120016040528088815260200160005481526020018781526020013373ffffffffffffffffffffffffffffffffffffffff1681526020018681526020018981526020018581526020018481526020016000815250905080600160008054815260200190815260200160002060008201518160000190805190602001906108679291906112fc565b5060208201518160010155604082015181600201908051906020019061088e9291906112fc565b5060608201518160030160006101000a81548173ffffffffffffffffffffffffffffffffffffffff021916908373ffffffffffffffffffffffffffffffffffffffff16021790555060808201518160040190805190602001906108f29291906112fc565b5060a0820151816005015560c08201518160060190805190602001906109199291906112fc565b5060e08201518160070190805190602001906109369291906112fc565b5061010082015181600801559050506001600054016000819055507f64a55044d1f2eddebe1b90e8e2853e8e96931cefadbfa0b2ceb34bee360619416001600054036040518082815260200191505060405180910390a160019150509695505050505050565b606060005482106109ac57600080fd5b60606040518060400160405280600e81526020017f4d65646963696e65204e616d65200000000000000000000000000000000000008152509050610a9e81600160008681526020019081526020016000206000018054600181600116156101000203166002900480601f016020809104026020016040519081016040528092919081815260200182805460018160011615610100020316600290048015610a945780601f10610a6957610100808354040283529160200191610a94565b820191906000526020600020905b815481529060010190602001808311610a7757829003601f168201915b5050505050610f95565b9050610adf816040518060400160405280600c81526020017f3c62723e4d6164656279203a0000000000000000000000000000000000000000815250610f95565b9050610b9981600160008681526020019081526020016000206002018054600181600116156101000203166002900480601f016020809104026020016040519081016040528092919081815260200182805460018160011615610100020316600290048015610b8f5780601f10610b6457610100808354040283529160200191610b8f565b820191906000526020600020905b815481529060010190602001808311610b7257829003601f168201915b5050505050610f95565b9050610bda816040518060400160405280601881526020017f3c62723e4d616e75666163747572696e6720446174653a200000000000000000815250610f95565b9050610c9481600160008681526020019081526020016000206004018054600181600116156101000203166002900480601f016020809104026020016040519081016040528092919081815260200182805460018160011615610100020316600290048015610c8a5780601f10610c5f57610100808354040283529160200191610c8a565b820191906000526020600020905b815481529060010190602001808311610c6d57829003601f168201915b5050505050610f95565b9050610cd5816040518060400160405280601181526020017f3c62723e496e6772656469656e74733a20000000000000000000000000000000815250610f95565b9050610d8f81600160008681526020019081526020016000206006018054600181600116156101000203166002900480601f016020809104026020016040519081016040528092919081815260200182805460018160011615610100020316600290048015610d855780601f10610d5a57610100808354040283529160200191610d85565b820191906000526020600020905b815481529060010190602001808311610d6857829003601f168201915b5050505050610f95565b9050610dd0816040518060400160405280601181526020017f3c62723e4465736372697074696f6e3a20000000000000000000000000000000815250610f95565b9050610e8a81600160008681526020019081526020016000206007018054600181600116156101000203166002900480601f016020809104026020016040519081016040528092919081815260200182805460018160011615610100020316600290048015610e805780601f10610e5557610100808354040283529160200191610e80565b820191906000526020600020905b815481529060010190602001808311610e6357829003601f168201915b5050505050610f95565b905060008090505b6001600085815260200190815260200160002060080154811015610f8b57610f7c826001600087815260200190815260200160002060090160008481526020019081526020016000206000018054600181600116156101000203166002900480601f016020809104026020016040519081016040528092919081815260200182805460018160011615610100020316600290048015610f725780601f10610f4757610100808354040283529160200191610f72565b820191906000526020600020905b815481529060010190602001808311610f5557829003601f168201915b5050505050610f95565b91508080600101915050610e92565b5080915050919050565b6060808390506060839050606081518351016040519080825280601f01601f191660200182016040528015610fd95781602001600182028038833980820191505090505b5090506060819050600080905060008090505b855181101561105a5785818151811061100157fe5b602001015160f81c60f81b83838060010194508151811061101e57fe5b60200101907effffffffffffffffffffffffffffffffffffffffffffffffffffffffffffff1916908160001a9053508080600101915050610fec565b5060008090505b84518110156110cf5784818151811061107657fe5b602001015160f81c60f81b83838060010194508151811061109357fe5b60200101907effffffffffffffffffffffffffffffffffffffffffffffffffffffffffffff1916908160001a9053508080600101915050611061565b50819550505050505092915050565b606060005484106110ee57600080fd5b60606040518060400160405280601181526020017f3c62723e3c62723e3c623e446174653a2000000000000000000000000000000081525090506111328185610f95565b9050611173816040518060400160405280601281526020017f3c2f623e3c62723e4c6f636174696f6e3a200000000000000000000000000000815250610f95565b905061117f8184610f95565b905061118961137c565b60405180604001604052808381526020013373ffffffffffffffffffffffffffffffffffffffff16815250905080600160008881526020019081526020016000206009016000600160008a815260200190815260200160002060080154815260200190815260200160002060008201518160000190805190602001906112109291906112fc565b5060208201518160010160006101000a81548173ffffffffffffffffffffffffffffffffffffffff021916908373ffffffffffffffffffffffffffffffffffffffff16021790555090505060018060008881526020019081526020016000206008015401600160008881526020019081526020016000206008018190555081925050509392505050565b604051806101200160405280606081526020016000815260200160608152602001600073ffffffffffffffffffffffffffffffffffffffff16815260200160608152602001600081526020016060815260200160608152602001600081525090565b828054600181600116156101000203166002900490600052602060002090601f016020900481019282601f1061133d57805160ff191683800117855561136b565b8280016001018555821561136b579182015b8281111561136a57825182559160200191906001019061134f565b5b50905061137891906113ac565b5090565b604051806040016040528060608152602001600073ffffffffffffffffffffffffffffffffffffffff1681525090565b6113ce91905b808211156113ca5760008160009055506001016113b2565b5090565b9056fea265627a7a723158209b4040905ce0ddbe3b957a5ea0ad23fbfa555c9cc2ebb31a050c1f9a3004e4ba64736f6c63430005100032",
  "source": "pragma solidity ^0.5.11;\r\n\r\ncontract Detection{\r\n    \r\n    event Added(uint256 index);\r\n    \r\n    uint items=0;\r\n    \r\n    struct State{\r\n        string description;\r\n        address person;\r\n    }\r\n    \r\n    struct Medicine{\r\n        string MedicineName;\r\n        uint MedicineId;\r\n        string Company;\r\n        address Creator;\r\n        string Manufacturingdate;\r\n        uint Rate;\r\n        string Ingredients;\r\n        string Description;\r\n        uint256 totalStates;\r\n        mapping (uint256 => State) positions;\r\n    }\r\n    \r\n    mapping(uint=>Medicine) AllMedicines;\r\n    \r\n    \r\n     function concat(string memory _a, string memory _b) public pure returns (string memory){\r\n        bytes memory bytes_a = bytes(_a);\r\n        bytes memory bytes_b = bytes(_b);\r\n        string memory length_ab = new string(bytes_a.length + bytes_b.length);\r\n        bytes memory bytes_c = bytes(length_ab);\r\n        uint k = 0;\r\n        for (uint i = 0; i < bytes_a.length; i++) bytes_c[k++] = bytes_a[i];\r\n        for (uint i = 0; i < bytes_b.length; i++) bytes_c[k++] = bytes_b[i];\r\n        return string(bytes_c);\r\n    }\r\n    \r\n\r\n    \r\n    function AddMedicine(uint _rate,string memory _name,string memory _company,string memory _date,string memory _ingredients,string memory _description)public returns(bool){\r\n            Medicine memory NewMedicine=Medicine(_name,items,_company,msg.sender,_date,_rate,_ingredients,_description,0);\r\n            AllMedicines[items]=NewMedicine;\r\n            items = items+1;\r\n            emit Added(items-1);\r\n            return true;\r\n            \r\n    }\r\n    \r\n    function SearchMedicine(uint _id)public view returns(string memory){\r\n           require(_id<items);\r\n           string memory output=\"Medicine Name \";\r\n           output=concat(output,AllMedicines[_id].MedicineName);\r\n           output=concat(output,\"<br>Madeby :\");\r\n           output=concat(output,AllMedicines[_id].Company);\r\n           output=concat(output,\"<br>Manufacturing Date: \");\r\n           output=concat(output,AllMedicines[_id].Manufacturingdate);\r\n           output=concat(output,\"<br>Ingredients: \");\r\n           output=concat(output,AllMedicines[_id].Ingredients);\r\n           output=concat(output,\"<br>Description: \");\r\n           output=concat(output,AllMedicines[_id].Description);\r\n          for (uint256 j=0; j<AllMedicines[_id].totalStates; j++){\r\n            output=concat(output, AllMedicines[_id].positions[j].description);\r\n        }\r\n           return output;\r\n    }\r\n    function addState(uint _productId, string memory _date, string memory _location) public returns (string memory) {\r\n        require(_productId<items);\r\n        string memory desc=\"<br><br><b>Date: \";\r\n        desc=concat(desc, _date);\r\n        desc=concat(desc, \"</b><br>Location: \");\r\n        desc=concat(desc, _location);\r\n        State memory newState = State({person: msg.sender, description: desc});\r\n        AllMedicines[_productId].positions[ AllMedicines[_productId].totalStates ]=newState;\r\n        AllMedicines[_productId].totalStates = AllMedicines[_productId].totalStates +1;\r\n        return desc;\r\n    }\r\n\r\n}",
  "sourcePath": "C:/Users/user/Desktop/Anti-Counterfeit-on-Medicine-detection-/contracts/Detection.sol",
  "compiler": {
    "name": "solc",
    "version": "0.5.16+commit.9c3226ce.Emscripten.clang"
  },
  "schemaVersion": "3.3.2",
  "updatedAt": "2021-05-08T21:14:08.978Z",
  "networkType": "ethereum",
  "devdoc": {
    "methods": {}
  },
  "userdoc": {
    "methods": {}
  }
}